:020000040800F2
:10000000484B00207D02000827170008E51500086E
:1000100025170008AD030008551D0008000000006A
:10002000000000000000000000000000C101000806
:10003000E103000800000000150200088118000814
:10004000970200089702000897020008970200082C
:10005000970200089702000897020008970200081C
:10006000970200089702000897020008970200080C
:1000700097020008970200089702000897020008FC
:10008000970200089702000897020008D5030008AD
:10009000B1030008BD030008C90300089702000867
:1000A00097020008970200089702000897020008CC
:1000B00097020008970200089702000897020008BC
:1000C00097020008970200089702000897020008AC
:1000D000970200089702000897020008351D0008E3
:1000E000970200089702000897020008970200088C
:1000F000970200089702000897020008970200087C
:10010000970200089702000897020008970200086B
:10011000970200089702000897020008970200085B
:10012000970200089702000897020008970200084B
:10013000970200089702000897020008970200083B
:10014000970200089702000897020008970200082B
:10015000970200089702000897020008970200081B
:10016000970200089702000897020008970200080B
:1001700097020008970200089702000897020008FB
:1001800097020008970200089702000897020008EB
:1001900097020008970200089702000897020008DB
:1001A000970200089702000897020008DFF80CD0B9
:1001B00000F0EAF800480047751D0008484B002091
:1001C0002B4B19680868B0E8F04F80F30988BFF33B
:1001D0006F8F4FF0000080F311887047000000001F
:1001E00006480068006880F3088862B661B6BFF30D
:1001F0004F8FBFF36F8F00DF00BF00BF08ED00E03F
:10020000DFF80C00016841F470010160704700BF25
:1002100088ED00E0EFF30980BFF36F8F144B1A688D
:100220001EF0100F08BF20ED108A20E9F04F10607B
:1002300008B44FF0500080F31188BFF34F8FBFF325
:100240006F8F02F05DF94FF0000080F3118808BC59
:1002500019680868B0E8F04F1EF0100F08BFB0EC46
:10026000108A80F30988BFF36F8F704700BF00BF0B
:100270003C000020EFF305807047000006488047EF
:1002800006480047FEE7FEE7FEE7FEE7FEE7FEE77B
:10029000FEE7FEE7FEE7FEE719190008AD010008DA
:1002A0002DE9F05F0546002092469B4688460646AB
:1002B000814640241BE0284641464746224600F03E
:1002C00053F853465A46C01A914110D31146184666
:1002D000224600F03AF82D1A67EB01084F462246F5
:1002E0000120002100F031F817EB00094E41201EDB
:1002F000A4F10104DFDC484631462A464346BDE806
:10030000F09F40EA01039B0703D009E008C9121FD0
:1003100008C0042AFAD203E011F8013B00F8013BBF
:10032000521EF9D27047D2B201E000F8012B491EEB
:10033000FBD270470022F6E710B513460A46044682
:100340001946FFF7F0FF204610BD202A04DB203AB3
:1003500000FA02F1002070479140C2F1200320FA18
:1003600003F3194390407047202A04DB203A21FA16
:1003700002F00021704721FA02F3D040C2F12002BE
:100380009140084319467047064C074D06E0E06867
:1003900040F0010394E8070098471034AC42F6D3CC
:1003A000FFF708FFA4280008C4280008FEE70000A3
:1003B000014800F02DB900009C000020014800F029
:1003C00027B900009C000020014800F021B900007E
:1003D0009C000020014800F01BB900009C00002098
:1003E0007047000010B590F82020012A09D090F83D
:1003F0002020022A05D0416A41F480214162012077
:1004000010BD3A48D0F8002242F00102C0F80022A4
:10041000D0F8002222F47C52C0F80022D0F800224A
:100420004B6A42EA0322C0F800220B7D01229A4067
:10043000D0F81C329343C0F81C32CB69B3B9D0F862
:100440000C329343C0F80C328C894B6864F31F4321
:100450004C6900EBC404C4F840320C890B6864F3A7
:100460001F434C6900EBC404C4F84432CB69012B30
:1004700016D1D0F80C321343C0F80C320C884B68FC
:1004800064F31F434C6900EBC404C4F840320C8988
:10049000CB6864F31F434C6900EBC404C4F84432D6
:1004A0008B69002BD0F804320ED01343C0F804320D
:1004B0000B69002BD0F8143208D01343C0F8143263
:1004C000096A012904D008E09343EFE79343F5E775
:1004D000D0F81C121143C0F81C12D0F8001221F001
:1004E0000101C0F80012002010BD000000640040AF
:1004F000704790F820300022012B03D090F8203074
:10050000022B04D1006821B1006900F003021046FB
:100510007047C068F9E730B590F82040012C07D04B
:1005200090F82040022C03D0416A41F4802109E078
:1005300011B1012909D00CE00468E46807E0416AC0
:1005400041F400114162012030BD04682469A40710
:10055000F5D04FF4D874056804EB01142D5915F04B
:100560000405956005682D5942D0ED085560056871
:100570002C59C4F34004D4604FF4DA74056804EBDA
:1005800001142D5905F00F05156105682D59C5F3A6
:100590000725956105682C59240C54614FF4DC72D1
:1005A000046802EB0112A4581C700468A458240AC1
:1005B0005C700468A458240C9C700468A258120E45
:1005C000DA704FF4DE72046802EB0112A4581C7159
:1005D0000468A458240A5C710468A458240C9C7113
:1005E0000468A258120EDA7129B1012909D00DE070
:1005F0006D0D1560BBE70068C16841F02001C16066
:1006000004E00068016941F020010161002030BD73
:100610002DE9F05F0546006800244669D0F8049093
:100620008768D0F80CB0D0F810A0D0F81880F10787
:1006300048D0F90714D001218160B80703D52846B6
:1006400000F0FBF90CE0780702D54FF4006407E0F6
:10065000380702D54FF4805402E0284600F0ECF948
:10066000F80516D529684FF480708860B80503D561
:10067000284600F0E4F90CE0780502D544F4005473
:1006800007E0380502D544F4804402E0284600F033
:10069000D5F9F80316D529684FF480308860B8037F
:1006A00003D5284600F0CDF90CE0780302D544F4D8
:1006B000004407E0380302D544F4803402E02846C1
:1006C00000F0BEF9300707D55FEACB6004D5296892
:1006D000102044F40074C86070074FF0080707D575
:1006E0005FEA0B7004D52868C760284600F072F9ED
:1006F000B00706D52868C068800702D0284600F0F9
:100700006AF9700607D55FEACA6004D52968102027
:1007100044F480640861B00607D55FEA0A7004D526
:1007200028680761284600F057F9F00606D52868C2
:100730000069800702D0284600F04FF9B00308D5C1
:100740005FEAC96005D5296810204860284600F096
:1007500045F9F00307D55FEA097004D528684760BA
:10076000284600F06FF9300446D55FEA497040D55D
:10077000F00504D55FEAC87001D044F00104B0056B
:1007800004D55FEA887001D544F00204700504D5F1
:100790005FEA487001D544F00404300529D518F00B
:1007A000700F26D008F07000402815D006DC102805
:1007B00009D020280AD0302816D10AE050280ED0BF
:1007C000602811D10EE044F008040DE044F010045C
:1007D0000AE044F0200407E044F0400404E044F060
:1007E000800401E044F480742868816921F070017C
:1007F0008161296804204860002C05D0686A204384
:1008000068622846FFF774FEBDE8F09F70B50400EB
:1008100003D094F8200010B104E0012070BD204600
:1008200000F082F82068016821F00201016000F008
:1008300009FA0546052604E000F004FA401B0A28E0
:1008400011D8206840688007F6D42068016841F01C
:100850000101016000F0F6F905460BE000F0F2F945
:10086000401B0A2806D9606A40F40030606284F8B0
:100870002060D2E720684068C007EFD0207E0128C2
:10088000206801683DD021F080010160607E012870
:100890002068016838D021F040010160A07E012865
:1008A0002068016833D021F020010160E07E01283A
:1008B000206801682ED041F010010160207F0128DE
:1008C0002068016829D021F008010160607F0128BB
:1008D0002068016824D021F004010160D4E90201FC
:1008E0000843D4E90412114308436168491E0843D0
:1008F0002168C86100206062012084F82000002087
:1009000070BD41F08001C0E741F04001C5E741F012
:100910002001CAE721F01001CFE741F00801D4E738
:1009200041F00401D9E7000010B586B00446142157
:100930006846FFF7FFFC24492068884241D12348DC
:100940000021026842F000720260006800F000704E
:1009500005901E481038026842F0020202600068EA
:1009600000F0020005904FF4407000900220CDE9A5
:10097000010103200390092004906946144800F007
:1009800075F800220521132000F0FCF9132000F077
:10099000EDF900220521142000F0F4F9142000F0F4
:1009A000E5F900220521152000F0ECF9152000F0F2
:1009B000DDF900220521162000F0E4F9162000F0F0
:1009C000D5F906B010BD0000006400404038024078
:1009D000000402407047704770477047704700003E
:1009E00070B5044690F82000012804D0606A40F4F5
:1009F0000020606218E0022084F82000206801686E
:100A000021F00101016000F01DF905460EE000BF74
:100A100000F018F9401B0A2808D9606A40F4003039
:100A20006062052084F82000012070BD20684068C5
:100A3000C007EDD1606270BD704770477047704766
:100A400070477047704790F83510022903D0802115
:100A5000416501207047052180F835100068016864
:100A600021F0010101600020704700002DE9F84FDE
:100A7000DFF890B100224FF001084FF0030A4FF069
:100A80000F090BF1040E00BF0B6808FA02F42340B3
:100A9000A3426ED14D68022D01D0122D0ED1D50882
:100AA00000EB850CDCF820505607F70E09FA07F624
:100AB000B5430E69BE402E43CCF820600668550051
:100AC0000F790AFA05FC07F0030726EA0C06AF4087
:100AD000374307604E68012E05D0022E03D0112E39
:100AE00001D0122E0ED18768CE6827EA0C07AE40DF
:100AF0003E4386604668A6430C79C4F300149440D4
:100B000034434460C4688E6824EA0C04AE40264333
:100B1000C6604C68E4006FD53B4C256845F48045C1
:100B20002560246822F0030504F480440094374CC7
:100B30002E19D6F8084895072F0F09FA07F5AC4388
:100B4000334DA84201D100252EE0324DA84201D1FB
:100B5000012529E0304DA84201D1022524E02F4D86
:100B6000A84201D103251FE02D4DA84202D1042542
:100B70001AE041E02B4DA84201D1052514E02A4D91
:100B8000A84201D106250FE0284DA84201D1072532
:100B90000AE0274DA84201D1082505E0254DA842CD
:100BA00001D1092500E00A25BD402543C6F80858B3
:100BB000DBF800405D464E689C43F60300D51C43BD
:100BC0002C60DEF8004075464E689C43B60300D5A5
:100BD0001C432C600B4D08352C684E689C43F60274
:100BE00000D51C432C60074D0C352C684E689C4387
:100BF000B60200D51C432C60521C102AFFF444AFEF
:100C0000BDE8F88F003C014044380240003001400C
:100C1000000002400004024000080240000C0240B4
:100C2000001002400014024000180240001C024064
:100C300000200240002402400AB18161704709048B
:100C4000FBE7000001488068704700002C0000208E
:100C500070B5040011D021684CF6CC4008602168C2
:100C600045F255500860D4E9000141602168A06850
:100C70008860FFF7E7FF054609E0012070BD00BF6F
:100C8000FFF7E0FF401B302801D9032070BD20682A
:100C9000C0680028F4D121684AF6AA200860002024
:100CA00070BD00684AF6AA2101600020704700006C
:100CB0000248816802781144816070472C0000204E
:100CC0000B4810B5016841F400710160016841F4FE
:100CD00080610160016841F480710160032000F0CF
:100CE00071F80F2000F006F800F024F8002010BD85
:100CF000003C024070B50D4D04464FF47A712878DF
:100D0000B1FBF0F00A490968B1FBF0F000F0E2FA3B
:100D100048B9102C07D200222146501E00F032F8AC
:100D200000206C6070BD012070BD00002C00002010
:100D3000380000200C4882B0016841F48041016015
:100D4000006800F4804000900748001F016841F0EF
:100D5000805101600068002200F0805000900F2157
:100D6000901E02B000F00EB84438024000F01F029E
:100D7000012191404009800000F1E020C0F80011FD
:100D800070470000F0B40E4B1B680C46C3F30223FF
:100D9000C3F10705042D00D90425191D072901D227
:100DA000002300E0DB1E012606FA05F1491E214062
:100DB00099409E40761E16403143F0BC00F0B4BC12
:100DC0000CED00E0064900F0070208684FF6FF034B
:100DD000184040EA0220034A1043086070470000B0
:100DE0000CED00E00000FA052DE9F0470E46050085
:100DF00065D0DFF81481D8F80000F7B200F00F00DA
:100E0000B04207D288F80070D8F8000000F00F0058
:100E1000B04254D128683D4C810712D5400703D514
:100E2000206840F4E05020602878000703D520684F
:100E300040F4604020602068A96820F0F00008437A
:100E400020602878C0072DD030496868083901280B
:100E500012D0022813D0032811D00968890700296D
:100E60002DDA216821F0030101432160FFF7EAFE3A
:100E7000814641F2883A0EE009688903EFE7096884
:100E80008901ECE7FFF7DEFEA0EB0901514502D92D
:100E90000320BDE8F0872068696800F00C00B0EB23
:100EA000810FEFD1D8F80010404601F00F01B14298
:100EB00007D90770006800F00F00B04201D0012090
:100EC000E7E72878400705D52068E96820F4E05076
:100ED000084320602878000706D52068296920F497
:100EE000604040EAC100206000F036F82168084AFE
:100EF000C1F30311515CC840064908600F20FFF799
:100F0000F9FE0020C5E70000003C0240083802401E
:100F10007C2800083800002004480549006809685A
:100F2000044AC1F38221515CC84070473800002058
:100F3000083802408C280008044805490068096800
:100F4000044AC1F34231515CC84070473800002068
:100F5000083802408C280008154810B5006810F0C9
:100F60000C02144813D04110042A0FD0082A0ED1C5
:100F70000F4C241F2268236802F03F025B0207D552
:100F80002068C0F38810A0FB010106E0084610BDF0
:100F90002168C1F38811A1FB00010023FFF780F94C
:100FA0002168C1F30141491C4900B0FBF1F010BDBB
:100FB000083802400024F4002DE9F84F050076D0EF
:100FC0002878DFF8F8B2BE4CC00749D0DBF8001033
:100FD0005846C1F38101012908D00068C0F381009F
:100FE00002280AD1201D0068400206D5206880032F
:100FF00036D568680028E2D032E06868B0F5803FF6
:1010000010D0B0F5A02F206810D020F480302060E0
:10101000206820F4802020606868A0B1FFF712FEED
:1010200006460CE0206840F48030F4E740F480206D
:101030002060F7E7FFF706FE801B642873D820685E
:101040008003F7D50CE0FFF7FDFD064605E000BF85
:10105000FFF7F8FD801B6428F0D820688003F7D4E0
:101060002878DFF8608280074FF000093ED5DBF872
:101070000010584611F00C0F09D00068C0F3810031
:1010800002280BD18D48001F0068400206D420685A
:10109000800715D5E868012809D111E0E868B8B1E2
:1010A0000120C8F80000FFF7CDFD064605E002E18B
:1010B000FFF7C8FD801B0228C0D820688007F7D53D
:1010C0002068296920F0F80040EAC10020600DE0A6
:1010D000C8F80090FFF7B6FD064604E0FFF7B2FD42
:1010E000801B02281FD820688007F7D428780007C3
:1010F00022D5724E744869696C3671B10121016064
:10110000FFF7A0FD074604E0FFF79CFDC01B022887
:1011100009D830688007F7D50EE0C0F80090FFF7D7
:1011200091FD074605E083E0FFF78CFDC01B022818
:101130007ED830688007F7D42878400768D5DFF874
:101140007CA100270AF1380ADAF80000C0000BD4AD
:10115000DAF8001041F08051CAF80010DAF8000007
:10116000012700F080500090584E3068C00510D420
:10117000306840F480703060FFF764FD009005E057
:10118000FFF760FD0099401A022851D83068C00569
:10119000F6D54A4EA868683601280FD00528306871
:1011A00010D020F001003060306820F00400306082
:1011B000A868B8B1FFF746FD00900FE0306840F036
:1011C0000100F4E740F004003060F7E7FFF73AFD74
:1011D0000099411A41F28830814264D83068800712
:1011E000F4D50EE0FFF72EFD009007E0FFF72AFD93
:1011F0000099411A41F28830814254D83068800702
:10120000F4D42FB1DAF8001021F08051CAF80010A0
:10121000A869C0B3DBF80010C1F3810102294AD0EC
:101220000228484607D0C8F86000FFF70BFD00E031
:1012300039E005463AE04746C8F86000FFF702FD8E
:10124000064604E0FFF7FEFC801B02282BD820682E
:101250008001F7D4D5E907010843A96A1C4A490867
:1012600002EB01416A6A41EA8211084395F82C10A9
:1012700040EA01611148001F016001203866FFF754
:10128000E1FC054605E014E0FFF7DCFC401B02280A
:1012900009D820688001F7D50BE000BFFFF7D2FC2A
:1012A000401B022802D90320BDE8F88F2068800186
:1012B000F4D40020F8E70120F6E7000008380240E7
:1012C0000038024000004742800E47420070004054
:1012D0000000FFFF10B5401EB0F1807F01D3012058
:1012E00010BD4FF0E02460610F21601700F01CFA80
:1012F0000020A06107202061002010BD7047000081
:1013000070B5026804461068D168536910F00F0F79
:1013100050D003F0010501F4907635435DD0C2074B
:1013200005D0CA0503D5E26B42F00102E263420731
:1013300005D5DA0703D0E26B42F00202E2638207CE
:1013400005D5DA0703D0E26B42F00402E26302073C
:1013500005D5DA0703D0E26B42F00802E263E26BE4
:10136000002A33D0800604D5880602D5204600F036
:1013700013FB20684069E16BC0F38010090700D4BB
:1013800028B3204600F0FAFA2068416949061AD5C8
:10139000416921F040014161606BA0B11B490165C9
:1013A000606BFFF750FB002810D0606B016DBDE84B
:1013B00070400847830610D58B060ED52046BDE841
:1013C000704000F0E9BA2046FFF798FF70BD204654
:1013D000FFF794FF0020E06370BD030606D50B06FF
:1013E00004D52046BDE8704000F072BC4006F3D53D
:1013F0004806F1D5D168204621F04001D160202176
:1014000084F8391000F0EDF870BD00006D19000887
:1014100070B5040004D094F83900002510B106E03E
:10142000012070BD84F83850204600F023F82420B5
:1014300084F839002068C16821F40051C160204659
:1014400000F0F0FA2068016921F490410161206800
:10145000416921F02A0141612068C16841F40051CD
:10146000C160E563202084F8390084F83A00002048
:1014700070BD000010B586B0044614216846FEF722
:1014800059FF18492068884229D11748016841F45A
:1014900080210160006800F4802005901248103817
:1014A000016841F0080101600068694600F0080029
:1014B00005904FF4407000900220019001200290AE
:1014C00003200390072004900848FFF7CFFA00227A
:1014D00005212720FFF756FC2720FFF747FC06B021
:1014E00010BD00000048004040380240000C02409F
:1014F00090F83A30202B1DD1D1B1CAB190F83830D4
:10150000012B17D081628285C2850021C16322220E
:1015100080F83A2080F8381001684A6942F00102E8
:101520004A610068C16841F49071C1600020704751
:101530000120704702207047F0B518494FF0000EA7
:10154000881D0A7905780AB300F10E0C48790CF869
:101550000050401CC0B24871042817D181F804E043
:101560000F4E81F805E0002200201CF8024000BF69
:1015700024FA00F303F00107CB79401CF7545B1CFD
:10158000CB710828F4DB521C042AEDDBDD2D03D1DE
:101590000120087181F807E0F0BD00000000002084
:1015A000B405002090F83930202B18D1A9B1A2B190
:1015B00090F83830012B12D001628284C28400215D
:1015C000C163212280F8392080F838100068C16892
:1015D00041F08001C1600020704701207047022067
:1015E00070477047FEE7000030B516488BB01449CD
:1015F000016002210024C0E901140904C0E903418B
:101600004FF4401141610476012545768576C57613
:1016100004774577FFF7FAF803940E200494CDE998
:101620000850CDE90645059400940194029469465A
:101630000448FEF7D7FE0348FFF7D2F90BB030BDE0
:10164000006400409C00002070B586B014216846FC
:10165000FEF770FE22480024016841F00401016099
:10166000016801F004010591016841F08001016009
:10167000016801F080010591016841F008010160F5
:10168000016801F008010591016841F00201016063
:10169000016801F002010591016841F48071016067
:1016A0000068104E00F480704FF4A0650590002291
:1016B00029463046FFF7C0FA01200095CDE9010424
:1016C000694630460394FFF7D1F98020CDE9000444
:1016D000694605480294FFF7C9F906B070BD0000DD
:1016E00030380240001C02400020024010B50C4C73
:1016F0000A480C2120604FF4E13060600020A060B7
:10170000E060C4E90401A061E0612046FFF780FECB
:101710002068C16841F02001C16010BD0048004050
:1017200054010020FEE770470907090E002806DA79
:1017300000F00F0000F1E02080F8141D704700F168
:10174000E02080F8001470472DE9F0412E4C0F4640
:10175000224621782D4B92784FF00008B9B102EB68
:1017600042160025414603EB860671556D1C842DFB
:10177000FBDB02EB4215E170022603F8256003EB68
:10178000850580266970AE7003256570217002EBB7
:101790004211657803EB810102EB42164F556D1C37
:1017A0006570002503EB8607667810F805C06D1C90
:1017B00007F806C0761C6670082DF5DBF0B27A28B3
:1017C0001FD302EB4212002003EB8202E578135C88
:1017D000401C6B40E3708328F8DB0C4881F88330B1
:1017E00084224038FFF7DEFEA078401CC0B2A07013
:1017F000082801D184F80280012020702069401C53
:101800002061BDE8F081000000000020940100206C
:10181000184F194C07F130064FF000084FF47A7951
:1018200000211648FEF765FE0025E06015E013482C
:101830002830FFF736FA104B0E4A2433303200219D
:101840000E48FEF768FE38B93168C85D012803D13B
:1018500009482430FFF778FF6D1CE0688542E6D325
:10186000216948468142DBD900F0E4FAC4F81080CF
:10187000D6E70000A4050020000000209C00002006
:1018800010B5FFF715FABDE8104000F0DFBA000010
:1018900030B593B030216846FEF74CFD14210CA8FA
:1018A000FEF748FD1A480024016841F080510160AC
:1018B000006800F0805011901648016821F4404102
:1018C00041F4804101600068012500F4404011901E
:1018D000092000904FF48030019002204105CDE9AD
:1018E00006010421089105954821CDE9091003203E
:1018F0000B906846FFF760FB0F200C90CDE90D546C
:101900000F9400210CA81094FFF76EFA13B030BDAD
:1019100040380240007000401048016841F47001F6
:1019200001600F48016841F0010101600C4A00218B
:101930000832116002680B4B1A400260031D0A4A0C
:101940001A60026822F48022026005480C300160AF
:1019500002495806803908607047000088ED00E0B1
:1019600000380240FFFFF6FE1030002410B5806BF7
:101970000021C185C184FFF7C1FC10BD0168CA68A0
:1019800022F49072CA6001684A6922F001024A6139
:10199000202180F83A10704710B590F83A102229AB
:1019A00001D0022010BD8168B1F5805F11D00169BE
:1019B000002901681FD0496801F07F03816A4A1C31
:1019C00082620B70C18D491E0904090CC18518D0B3
:1019D00026E00269816A002A0268526805D0D2B204
:1019E0000A80816A491C8162ECE7C2F308020A801E
:1019F000816A891CF7E74A68816A4B1C83620A7016
:101A0000E0E70168CA6822F49072CA6001684A6916
:101A100022F001024A61202180F83A10FFF78CFD84
:101A2000002010BD2DE9F04104460068016921F451
:101A30004052E168114301612168C86849F20C62B3
:101A400090432369A268E5691A4363692B431A43EB
:101A50000243CA602168486920F44072A0691043BB
:101A60004861E1696425B1F5004F9748974A2168BC
:101A70004FF032083FD0914201D081427CD1FFF734
:101A80005BFA00EBC00101EB001061688900B0FB5C
:101A9000F1F6FFF751FA00EBC00101EB00106168AD
:101AA0008900B0FBF1F0B0FBF5F06FF0180148438E
:101AB00006EB800108EB0110B0FBF5F000F0F0063A
:101AC000FFF73AFA00EBC00101EB001061688900F2
:101AD000B0FBF1F0B0FBF5F006EB0016FFF72CFAC7
:101AE00000EBC00101EB001061688900B0FBF1F769
:101AF000FFF722FAD2E0914201D081423DD1FFF7B7
:101B00001BFA00EBC00101EB001061684900B0FB5B
:101B1000F1F0B0FBF5F00601FFF70EFA00EBC001A3
:101B200001EB001061684900B0FBF1F7FFF704FA20
:101B300000EBC00101EB001061684900B0FBF1F05F
:101B4000B0FBF5F06FF01801484307EB800108EB9C
:101B5000C100B0FBF5F000F0F80006EB4006FFF71F
:101B6000EBF900EBC00101EB001061684900B0FB2C
:101B7000F1F7FFF7E1F93CE055E0FFF7CDF900EBB5
:101B8000C00101EB001061684900B0FBF1F0B0FB4F
:101B9000F5F00601FFF7C0F900EBC00101EB001002
:101BA00061684900B0FBF1F7FFF7B6F900EBC0013F
:101BB00001EB001061684900B0FBF1F0B0FBF5F0FB
:101BC0006FF01801484307EB800108EBC100B0FB40
:101BD000F5F000F0F80006EB4006FFF79DF900EB8A
:101BE000C00101EB001061684900B0FBF1F7FFF79D
:101BF00093F900EBC00101EB001061684900B0FBF4
:101C0000F1F0B0FBF5F06FF01801484307EB8001ED
:101C100008EBC100B0FBF5F000F00700216830448C
:101C20008860BDE8F081FFF777F900EBC00101EBB8
:101C3000001061688900B0FBF1F6FFF76DF900EB69
:101C4000C00101EB001061688900B0FBF1F0B0FB4E
:101C5000F5F06FF01801484306EB800108EB011026
:101C6000B0FBF5F000F0F006FFF756F900EBC0010D
:101C700001EB001061688900B0FBF1F0B0FBF5F0FA
:101C800006EB0016FFF748F900EBC00101EB00106E
:101C900061688900B0FBF1F7FFF73EF900EBC00186
:101CA00001EB001061688900B0FBF1F0B0FBF5F0CA
:101CB0006FF01801484307EB800108EB0110B0FBFF
:101CC000F5F000F00F00A9E70014014000100140FA
:101CD00090F83910212901D0022070478168B1F5B0
:101CE000805F016A0BD04A1C026202680978516069
:101CF000C18C491E0904090CC1840ED017E0098863
:101D00000268C1F30801516001690029016A02D02B
:101D1000491C0162ECE7891CFBE70168CA6822F0F4
:101D20008002CA600068C16841F04001C1600020C3
:101D30007047000010B50548FFF7E2FABDE8104013
:101D4000012203490148FFF7D3BB000054010020E2
:101D500006000020FEE702E008C8121F08C1002AA2
:101D6000FAD170477047002001E001C1121F002A1C
:101D7000FBD1704786B0FEF7A3FFFFF789FDFFF7A1
:101D800063FCFFF731FCFFF7B1FC224820490160FA
:101D90000521416040F6C4118160FEF759FF1D49DD
:101DA0001D480C311D4C0860002048608860C860E8
:101DB00008614861012388612370A070E070607041
:101DC0002061144D207160710146D03501EB411640
:101DD000002205EB8606B054521C842AFBDB491C0A
:101DE0000829F3DB0E4A00215054491C1E29FBDB55
:101DF0001370537014220B496846FEF782FA0021D3
:101E0000684600F02DF8A06100F01BF8FEE7000026
:101E100000300040C4000020002C014000000020E1
:101E2000B40500206828000801460020842900D05D
:101E3000C81C704710B500B9012000F0FFFA00205F
:101E400010BD10B500F020FB002010BD10B500F053
:101E500037FC012803D0BDE8104000F0EFBB10BDF7
:101E60003EB504460D46B0F90800FFF7DDFF02A9B4
:101E7000CDE90001208A2B4682B2D4E9001000F09F
:101E8000F3FB012801D000203EBD02983EBD0000BA
:101E90002DE9F041184C0F460546E6682068001D04
:101EA00000F016FA38B9206890F82C10012088400C
:101EB000216981432161681C07D137B12168BDE8E0
:101EC000F0410E48091D00F03BBA20683544B54288
:101ED0004560216805D2A06BBDE8F041091D00F006
:101EE00017BA606B091D00F013FAA06A854200D290
:101EF000A562BDE8F08100003C000020300B00200E
:101F00002DE9F041054600F027FA2E4CA068401C50
:101F1000A06020682C4F10B1606940B32DE02560AF
:101F2000A068012829D1002606EB860007EB800077
:101F300000F0E0F9761C072EF6D323488C3000F031
:101F4000D9F92148A03000F0D5F91F48B43000F08D
:101F5000D1F91D48C83000F0CDF91B48DC3000F045
:101F6000C9F919488C3060631430A06305E020681B
:101F7000E96AC06A884200D82560606A401C6062D5
:101F8000E96A0120226988401043206101EB810049
:101F900007EB8000291D00F0D3F900F0FDF960691E
:101FA00000280CD02068E96AC06A884207D2074935
:101FB0004FF080500860BFF34F8FBFF36F8FBDE8C5
:101FC000F08100003C000020540A002004ED00E0F5
:101FD00070B5114E114C17E000F08AFA3068B8B1B4
:101FE00000F0E0FB00F0B8F9F068C568281D00F0CB
:101FF0006FF9A068401EA0606068401E606000F03D
:10200000CBF9284600F00CF860680028E4D170BDD8
:1020100000F0C8FBF8E700001C0B00203C0000208B
:1020200010B50446006B00F0CBF92046BDE8104027
:1020300000F0C6B910484FF47051420706D0C01DD9
:102040000D4920F00700411AC1F570510B4A0023D9
:102050000144C2E900030839103A21F00701116078
:102060004B600B600B1AC0E9001393604FF0004007
:102070005360D06070470000440B002088000020AF
:10208000074C4FF08056074DFFF7A2FF206801284C
:10209000FAD92E60BFF34F8FBFF36F8FF4E70000C4
:1020A000540A002004ED00E02DE9F0479A46DDE9EE
:1020B000098481466FF00303206B03EB8202104416
:1020C000089D20F00706700707D0502080F3118884
:1020D000BFF34F8FBFF36F8FFEE723180A5C83F8BF
:1020E00034200A5C12B1401C1028F6D3002784F873
:1020F0004370072D00D30625E562C4E91157201D62
:1021000000F003F904F1180000F0FFF82461C5F1B4
:1021100007006462A061E76484F850705246494643
:10212000304600F0BFF82060B8F1000F01D0C8F8C9
:102130000040BDE8F087000030B5114900E01146CD
:102140000A688242FBD34B685C18844203D1406822
:1021500018444860084643681C18944209D1084C4A
:10216000103C2468A24209D052681A4442600A68AE
:1021700012680260814200D0086030BD0460F9E757
:10218000880000200648416B096829B1416BC96885
:10219000C9684968816270474FF0FF31FAE7000073
:1021A0003C00002008484068401C4FF0500080F37D
:1021B000118804D0BFF34F8FBFF36F8FFEE7BFF3DB
:1021C0004F8FBFF36F8FFEE7900000202DE9F041A5
:1021D0000546002700F08CF9314E306808B9FFF74A
:1021E00029FFF06805424BD1C5B3083568070ED00A
:1021F00005F00700C0F108000544680707D050202B
:1022000080F31188BFF34F8FBFF36F8FFEE72DB3BD
:102210007068854234D82248103001460C6801E0CD
:1022200020460C466168A94202D221680029F7D1F4
:1022300031688C4224D007682168016060680837E3
:10224000411B10290FD96019420708D0502080F394
:102250001188BFF34F8FBFF36F8FFEE710E041602F
:102260006560FFF769FF61687068401A7060B26866
:10227000904200D2B060F06801430020C4E9000140
:1022800000F090FA780707D0502080F31188BFF350
:102290004F8FBFF36F8FFEE73846BDE8F081000037
:1022A0007800002010B5031F4FF080741C601B1FC6
:1022B00021F001011960191F044B0B6014390A60E9
:1022C000091F6FF0020244380A6010BDA521000802
:1022D000D0E9013201699A60D0E901235A604A6865
:1022E000824201D182684A60002202610868401E71
:1022F0000860704700F108014FF0FF32C0E9011299
:10230000C1600161002101607047002101617047D7
:1023100030B50B685A1C02D000F1080202E00269D5
:1023200004E02246546825689D42FAD953684B6000
:1023300099608A60516008610168491C016030BD84
:1023400042684A6093688B60936859609160086145
:102350000168491C01607047502080F31188BFF369
:102360004F8FBFF36F8F0A494868401C48600128AF
:102370000CD10848006810F0FF0F07D0502080F300
:102380001188BFF34F8FBFF36F8FFEE770470000D8
:102390009000002004ED00E00849486828B1401E84
:1023A000486001D180F311887047502080F3118874
:1023B000BFF34F8FBFF36F8FFEE700009000002048
:1023C00070B5002827D0144DA0F108046168E868B2
:1023D000014207D1502080F31188BFF34F8FBFF324
:1023E0006F8FFEE722683AB1502080F31188BFF367
:1023F0004F8FBFF36F8FFEE78143616000F078F885
:1024000060686968084468602046FFF795FEBDE88B
:10241000704000F0C7B970BD7800002006484FF446
:102420007A710068B0FBF1F14FF0E020491E416184
:1024300007210161704700003800002010B502003C
:1024400014D00F48006B38B1502080F31188BFF3CF
:102450004F8FBFF36F8FFEE700F04AF80021104660
:10246000FFF716FD00F09EF9002807D105494FF04F
:1024700080500860BFF34F8FBFF36F8F10BD000017
:102480003C00002004ED00E01CB515480024CDE917
:1024900000402346802213A1144800F0E5F80128EB
:1024A00009D0401C1AD1502080F31188BFF34F8F00
:1024B000BFF36F8FFEE7502080F31188BFF34F8F7B
:1024C000BFF36F8F06484FF0FF312C388162012136
:1024D0004161C460BDE81C4000F040B81CBD000074
:1024E0006800002049444C4500000000812000089D
:1024F0000248016B491C0163704700003C0000204A
:102500001448016B11B10121C16170470021C16103
:102510000169B1FA81F1C1F11F0101EB81020E499C
:1025200051F822306BB101EB820101F108034A68D6
:1025300052684A609A4201D152684A60D16801608B
:102540007047502080F31188BFF34F8FBFF36F8F18
:10255000FEE700003C000020540A00201CB5324871
:102560000168324A914207D1502080F31188BFF3AD
:102570004F8FBFF36F8FFEE700682C49491E8842DA
:1025800007D1502080F31188BFF34F8FBFF36F8FB7
:10259000FEE7274908780190FF20087008788DF839
:1025A00000009DF800009DF8002000F0F00090422F
:1025B00007D0502080F31188BFF34F8FBFF36F8F88
:1025C000FEE79DF800001B4A00F050001070072045
:1025D000906005E09DF800305B008DF80030401EF3
:1025E0009DF800301B06F5D4000200F4E060906016
:1025F000019808700C482030016841F470010160B6
:10260000016841F070410160FFF708FF0020506051
:10261000FDF7F6FD0848016841F040410160FDF713
:10262000DFFD00201CBD000000ED00E071C20F4185
:1026300000E400E09000002034EF00E010B55020EE
:1026400080F31188BFF34F8FBFF36F8F00F046F810
:1026500018B104494FF080500860002080F31188C1
:1026600010BD000004ED00E02DE9FF5F8346DDE9C9
:102670000E87994616468A469000FFF7A7FD05008B
:102680001AD05420FFF7A2FD040012D025630021C8
:10269000CDE90241CDE900874B46324651465846C6
:1026A000FFF702FD2046FFF72BFC012004B0BDE838
:1026B000F09F2846FFF784FE4FF0FF30F6E700005A
:1026C0000548416919B1006B18B10020704701201D
:1026D00070470220704700003C0000202DE9F041C7
:1026E0002E4C0027206B40B1A069401CA061E0691E
:1026F00000B101273846BDE8F081E668761CE66047
:1027000013D1606B006838B1502080F31188BFF39B
:102710004F8FBFF36F8FFEE7606BA16B6163A063A8
:10272000206A401C2062FFF72DFDA06ADFF8708050
:10273000864209D3606B006880B1606BC068C56871
:10274000686886420DD2A0622068C06A00EB8001F2
:1027500058F821000128CAD90127C8E74FF0FF30F7
:10276000F1E7281DFFF7B4FDA86A18B105F11800BC
:10277000FFF7AEFDE86A0121226981401143216122
:1027800000EB800108EB8100291DFFF7D9FDE86A05
:102790002168C96A8842CDD30127CBE73C000020DD
:1027A000540A00202DE9F0472C4D00242746286BC1
:1027B00038B1FFF7D1FD286B401E2863286B40B16C
:1027C00046E0502080F31188BFF34F8FBFF36F8F27
:1027D000FEE7A968224E0120D1B3A6F1B4098046D4
:1027E0003068E8B1F068C46804F11800FFF770FDC4
:1027F000201DFFF76DFDE06A2A6908FA00F1114318
:10280000296100EB800109EB8100211DFFF798FD94
:10281000E06A2968C96A8842E2D3C5F81C80DFE70C
:102820000CB1FFF7AFFCAC6944B14646FFF756FF69
:1028300000B1EE61641EF9D10020A861E86938B1E9
:102840000849012738070860BFF34F8FBFF36F8F28
:10285000FFF7A2FD3846BDE8F08700003C000020ED
:10286000080B002004ED00E094280008111800086F
:1028700000000000000000008000000000000000D8
:102880000000000001020304060708090000000020
:10289000010203045265636569766543616E4461B4
:1028A00074610000C4280008000000209C000000A3
:1028B000561D0008602900089C000020AC4A00005A
:1028C000661D00080000000000000000000000007D
:1028D00000000000000000000000000000000000F8
:1028E00000000000000000000000000000000000E8
:1028F0000100000010000000000000000024F400AF
:1029000000000000000000000000000000000000C7
:1029100000000000000000000000000000000000B7
:1029200000000000000000000000000000000000A7
:102930000000000000000000000000000000000097
:102940000000000000000000000000000000000087
:102950000000000000000000AAAAAAAA00000000CF
:04000005080001AD41
:00000001FF
